{
  "contracts/core/HelloWorlds.sol": {
    "HelloWorlds": {
      "abi": [
        {
          "inputs": [],
          "name": "getChain",
          "outputs": [
            {
              "internalType": "uint256",
              "name": "",
              "type": "uint256"
            },
            {
              "internalType": "string",
              "name": "",
              "type": "string"
            }
          ],
          "stateMutability": "view",
          "type": "function"
        }
      ],
      "devdoc": {
        "kind": "dev",
        "methods": {},
        "version": 1
      },
      "evm": {
        "bytecode": {
          "linkReferences": {},
          "object": "608060405234801561001057600080fd5b506102db806100206000396000f3fe608060405234801561001057600080fd5b506004361061002b5760003560e01c806332e21ae714610030575b600080fd5b61003861004f565b60405161004692919061020b565b60405180910390f35b60006060600046905060048114156100a257806040518060400160405280600781526020017f72696e6b6562790000000000000000000000000000000000000000000000000081525092509250506101bf565b620138818114156100ee57806040518060400160405280600681526020017f6d756d626169000000000000000000000000000000000000000000000000000081525092509250506101bf565b600181141561013857806040518060400160405280600881526020017f657468657265756d00000000000000000000000000000000000000000000000081525092509250506101bf565b608981141561018257806040518060400160405280600781526020017f706f6c79676f6e0000000000000000000000000000000000000000000000000081525092509250506101bf565b806040518060400160405280601081526020017f49444b207768617420746869732069730000000000000000000000000000000081525092509250505b9091565b60006101ce8261023b565b6101d88185610246565b93506101e8818560208601610261565b6101f181610294565b840191505092915050565b61020581610257565b82525050565b600060408201905061022060008301856101fc565b818103602083015261023281846101c3565b90509392505050565b600081519050919050565b600082825260208201905092915050565b6000819050919050565b60005b8381101561027f578082015181840152602081019050610264565b8381111561028e576000848401525b50505050565b6000601f19601f830116905091905056fea2646970667358221220656486b39526d0032f8d00e24ace8e4d391b42471fb2139e91cd40b8b2b5622364736f6c63430008040033",
          "opcodes": "PUSH1 0x80 PUSH1 0x40 MSTORE CALLVALUE DUP1 ISZERO PUSH2 0x10 JUMPI PUSH1 0x0 DUP1 REVERT JUMPDEST POP PUSH2 0x2DB DUP1 PUSH2 0x20 PUSH1 0x0 CODECOPY PUSH1 0x0 RETURN INVALID PUSH1 0x80 PUSH1 0x40 MSTORE CALLVALUE DUP1 ISZERO PUSH2 0x10 JUMPI PUSH1 0x0 DUP1 REVERT JUMPDEST POP PUSH1 0x4 CALLDATASIZE LT PUSH2 0x2B JUMPI PUSH1 0x0 CALLDATALOAD PUSH1 0xE0 SHR DUP1 PUSH4 0x32E21AE7 EQ PUSH2 0x30 JUMPI JUMPDEST PUSH1 0x0 DUP1 REVERT JUMPDEST PUSH2 0x38 PUSH2 0x4F JUMP JUMPDEST PUSH1 0x40 MLOAD PUSH2 0x46 SWAP3 SWAP2 SWAP1 PUSH2 0x20B JUMP JUMPDEST PUSH1 0x40 MLOAD DUP1 SWAP2 SUB SWAP1 RETURN JUMPDEST PUSH1 0x0 PUSH1 0x60 PUSH1 0x0 CHAINID SWAP1 POP PUSH1 0x4 DUP2 EQ ISZERO PUSH2 0xA2 JUMPI DUP1 PUSH1 0x40 MLOAD DUP1 PUSH1 0x40 ADD PUSH1 0x40 MSTORE DUP1 PUSH1 0x7 DUP2 MSTORE PUSH1 0x20 ADD PUSH32 0x72696E6B65627900000000000000000000000000000000000000000000000000 DUP2 MSTORE POP SWAP3 POP SWAP3 POP POP PUSH2 0x1BF JUMP JUMPDEST PUSH3 0x13881 DUP2 EQ ISZERO PUSH2 0xEE JUMPI DUP1 PUSH1 0x40 MLOAD DUP1 PUSH1 0x40 ADD PUSH1 0x40 MSTORE DUP1 PUSH1 0x6 DUP2 MSTORE PUSH1 0x20 ADD PUSH32 0x6D756D6261690000000000000000000000000000000000000000000000000000 DUP2 MSTORE POP SWAP3 POP SWAP3 POP POP PUSH2 0x1BF JUMP JUMPDEST PUSH1 0x1 DUP2 EQ ISZERO PUSH2 0x138 JUMPI DUP1 PUSH1 0x40 MLOAD DUP1 PUSH1 0x40 ADD PUSH1 0x40 MSTORE DUP1 PUSH1 0x8 DUP2 MSTORE PUSH1 0x20 ADD PUSH32 0x657468657265756D000000000000000000000000000000000000000000000000 DUP2 MSTORE POP SWAP3 POP SWAP3 POP POP PUSH2 0x1BF JUMP JUMPDEST PUSH1 0x89 DUP2 EQ ISZERO PUSH2 0x182 JUMPI DUP1 PUSH1 0x40 MLOAD DUP1 PUSH1 0x40 ADD PUSH1 0x40 MSTORE DUP1 PUSH1 0x7 DUP2 MSTORE PUSH1 0x20 ADD PUSH32 0x706F6C79676F6E00000000000000000000000000000000000000000000000000 DUP2 MSTORE POP SWAP3 POP SWAP3 POP POP PUSH2 0x1BF JUMP JUMPDEST DUP1 PUSH1 0x40 MLOAD DUP1 PUSH1 0x40 ADD PUSH1 0x40 MSTORE DUP1 PUSH1 0x10 DUP2 MSTORE PUSH1 0x20 ADD PUSH32 0x49444B2077686174207468697320697300000000000000000000000000000000 DUP2 MSTORE POP SWAP3 POP SWAP3 POP POP JUMPDEST SWAP1 SWAP2 JUMP JUMPDEST PUSH1 0x0 PUSH2 0x1CE DUP3 PUSH2 0x23B JUMP JUMPDEST PUSH2 0x1D8 DUP2 DUP6 PUSH2 0x246 JUMP JUMPDEST SWAP4 POP PUSH2 0x1E8 DUP2 DUP6 PUSH1 0x20 DUP7 ADD PUSH2 0x261 JUMP JUMPDEST PUSH2 0x1F1 DUP2 PUSH2 0x294 JUMP JUMPDEST DUP5 ADD SWAP2 POP POP SWAP3 SWAP2 POP POP JUMP JUMPDEST PUSH2 0x205 DUP2 PUSH2 0x257 JUMP JUMPDEST DUP3 MSTORE POP POP JUMP JUMPDEST PUSH1 0x0 PUSH1 0x40 DUP3 ADD SWAP1 POP PUSH2 0x220 PUSH1 0x0 DUP4 ADD DUP6 PUSH2 0x1FC JUMP JUMPDEST DUP2 DUP2 SUB PUSH1 0x20 DUP4 ADD MSTORE PUSH2 0x232 DUP2 DUP5 PUSH2 0x1C3 JUMP JUMPDEST SWAP1 POP SWAP4 SWAP3 POP POP POP JUMP JUMPDEST PUSH1 0x0 DUP2 MLOAD SWAP1 POP SWAP2 SWAP1 POP JUMP JUMPDEST PUSH1 0x0 DUP3 DUP3 MSTORE PUSH1 0x20 DUP3 ADD SWAP1 POP SWAP3 SWAP2 POP POP JUMP JUMPDEST PUSH1 0x0 DUP2 SWAP1 POP SWAP2 SWAP1 POP JUMP JUMPDEST PUSH1 0x0 JUMPDEST DUP4 DUP2 LT ISZERO PUSH2 0x27F JUMPI DUP1 DUP3 ADD MLOAD DUP2 DUP5 ADD MSTORE PUSH1 0x20 DUP2 ADD SWAP1 POP PUSH2 0x264 JUMP JUMPDEST DUP4 DUP2 GT ISZERO PUSH2 0x28E JUMPI PUSH1 0x0 DUP5 DUP5 ADD MSTORE JUMPDEST POP POP POP POP JUMP JUMPDEST PUSH1 0x0 PUSH1 0x1F NOT PUSH1 0x1F DUP4 ADD AND SWAP1 POP SWAP2 SWAP1 POP JUMP INVALID LOG2 PUSH5 0x6970667358 0x22 SLT KECCAK256 PUSH6 0x6486B39526D0 SUB 0x2F DUP14 STOP 0xE2 0x4A 0xCE DUP15 0x4D CODECOPY SHL TIMESTAMP SELFBALANCE 0x1F 0xB2 SGT SWAP15 SWAP2 0xCD BLOCKHASH 0xB8 0xB2 0xB5 PUSH3 0x236473 PUSH16 0x6C634300080400330000000000000000 "
        },
        "gasEstimates": {
          "creation": {
            "codeDepositCost": "146200",
            "executionCost": "190",
            "totalCost": "146390"
          },
          "external": {
            "getChain()": "infinite"
          }
        },
        "methodIdentifiers": {
          "getChain()": "32e21ae7"
        }
      },
      "storageLayout": {
        "storage": [],
        "types": null
      },
      "userdoc": {
        "kind": "user",
        "methods": {},
        "version": 1
      }
    }
  }
}