{
  "_format": "hh-sol-artifact-1",
  "contractName": "Bridge",
  "sourceName": "contracts/core/Bridge.sol",
  "abi": [
    {
      "inputs": [
        {
          "internalType": "address",
          "name": "wrappedTokenAddr",
          "type": "address"
        },
        {
          "internalType": "address[]",
          "name": "tokens",
          "type": "address[]"
        }
      ],
      "stateMutability": "nonpayable",
      "type": "constructor"
    },
    {
      "anonymous": false,
      "inputs": [
        {
          "indexed": true,
          "internalType": "address",
          "name": "user",
          "type": "address"
        },
        {
          "indexed": false,
          "internalType": "address[]",
          "name": "tokens",
          "type": "address[]"
        },
        {
          "indexed": false,
          "internalType": "uint256[]",
          "name": "tokenAmounts",
          "type": "uint256[]"
        },
        {
          "indexed": false,
          "internalType": "uint256",
          "name": "nativeAmount",
          "type": "uint256"
        },
        {
          "indexed": false,
          "internalType": "uint256",
          "name": "timestamp",
          "type": "uint256"
        }
      ],
      "name": "Deposit",
      "type": "event"
    },
    {
      "anonymous": false,
      "inputs": [
        {
          "indexed": true,
          "internalType": "address",
          "name": "previousOwner",
          "type": "address"
        },
        {
          "indexed": true,
          "internalType": "address",
          "name": "newOwner",
          "type": "address"
        }
      ],
      "name": "OwnershipTransferred",
      "type": "event"
    },
    {
      "anonymous": false,
      "inputs": [
        {
          "indexed": false,
          "internalType": "address",
          "name": "asset",
          "type": "address"
        },
        {
          "indexed": false,
          "internalType": "bool",
          "name": "state",
          "type": "bool"
        },
        {
          "indexed": false,
          "internalType": "uint256",
          "name": "timestamp",
          "type": "uint256"
        }
      ],
      "name": "TokenBridgeabilityUpdated",
      "type": "event"
    },
    {
      "anonymous": false,
      "inputs": [
        {
          "indexed": false,
          "internalType": "address",
          "name": "user",
          "type": "address"
        },
        {
          "indexed": false,
          "internalType": "address",
          "name": "asset",
          "type": "address"
        },
        {
          "indexed": false,
          "internalType": "bool",
          "name": "state",
          "type": "bool"
        },
        {
          "indexed": false,
          "internalType": "uint256",
          "name": "timestamp",
          "type": "uint256"
        }
      ],
      "name": "UserTokenLocationUpdated",
      "type": "event"
    },
    {
      "anonymous": false,
      "inputs": [
        {
          "indexed": true,
          "internalType": "address",
          "name": "user",
          "type": "address"
        },
        {
          "indexed": false,
          "internalType": "address[]",
          "name": "tokens",
          "type": "address[]"
        },
        {
          "indexed": false,
          "internalType": "uint256[]",
          "name": "tokenAmounts",
          "type": "uint256[]"
        },
        {
          "indexed": false,
          "internalType": "uint256",
          "name": "nativeAmount",
          "type": "uint256"
        },
        {
          "indexed": false,
          "internalType": "uint256",
          "name": "timestamp",
          "type": "uint256"
        }
      ],
      "name": "Withdraw",
      "type": "event"
    },
    {
      "inputs": [
        {
          "internalType": "address[]",
          "name": "tokens",
          "type": "address[]"
        },
        {
          "internalType": "uint256[]",
          "name": "amounts",
          "type": "uint256[]"
        }
      ],
      "name": "deposit",
      "outputs": [],
      "stateMutability": "payable",
      "type": "function"
    },
    {
      "inputs": [],
      "name": "owner",
      "outputs": [
        {
          "internalType": "address",
          "name": "",
          "type": "address"
        }
      ],
      "stateMutability": "view",
      "type": "function"
    },
    {
      "inputs": [],
      "name": "renounceOwnership",
      "outputs": [],
      "stateMutability": "nonpayable",
      "type": "function"
    },
    {
      "inputs": [
        {
          "internalType": "address",
          "name": "asset",
          "type": "address"
        }
      ],
      "name": "setTokenBridgeability",
      "outputs": [],
      "stateMutability": "nonpayable",
      "type": "function"
    },
    {
      "inputs": [
        {
          "internalType": "address",
          "name": "asset",
          "type": "address"
        },
        {
          "internalType": "address",
          "name": "account",
          "type": "address"
        }
      ],
      "name": "setUserTokenLocation",
      "outputs": [],
      "stateMutability": "nonpayable",
      "type": "function"
    },
    {
      "inputs": [
        {
          "internalType": "address",
          "name": "asset",
          "type": "address"
        }
      ],
      "name": "tokenDetails",
      "outputs": [
        {
          "internalType": "uint256",
          "name": "",
          "type": "uint256"
        },
        {
          "internalType": "bool",
          "name": "",
          "type": "bool"
        }
      ],
      "stateMutability": "view",
      "type": "function"
    },
    {
      "inputs": [
        {
          "internalType": "address",
          "name": "newOwner",
          "type": "address"
        }
      ],
      "name": "transferOwnership",
      "outputs": [],
      "stateMutability": "nonpayable",
      "type": "function"
    },
    {
      "inputs": [
        {
          "internalType": "address",
          "name": "asset",
          "type": "address"
        },
        {
          "internalType": "address",
          "name": "account",
          "type": "address"
        }
      ],
      "name": "userTokenBalance",
      "outputs": [
        {
          "internalType": "uint256",
          "name": "",
          "type": "uint256"
        },
        {
          "internalType": "bool",
          "name": "",
          "type": "bool"
        }
      ],
      "stateMutability": "view",
      "type": "function"
    },
    {
      "inputs": [
        {
          "internalType": "address[]",
          "name": "tokens",
          "type": "address[]"
        },
        {
          "internalType": "uint256[]",
          "name": "amounts",
          "type": "uint256[]"
        },
        {
          "internalType": "bool",
          "name": "withdrawWrappedAsUnwrapped",
          "type": "bool"
        }
      ],
      "name": "withdraw",
      "outputs": [],
      "stateMutability": "nonpayable",
      "type": "function"
    },
    {
      "inputs": [],
      "name": "wrappedNativeCurrencyAddress",
      "outputs": [
        {
          "internalType": "address",
          "name": "",
          "type": "address"
        }
      ],
      "stateMutability": "view",
      "type": "function"
    },
    {
      "inputs": [],
      "name": "wrappedToken",
      "outputs": [
        {
          "internalType": "contract IWrappedNativeCurrency",
          "name": "",
          "type": "address"
        }
      ],
      "stateMutability": "view",
      "type": "function"
    }
  ],
  "bytecode": "0x60806040523480156200001157600080fd5b50604051620030f6380380620030f6833981810160405281019062000037919062000347565b620000576200004b620001c260201b60201c565b620001ca60201b60201c565b81600360006101000a81548173ffffffffffffffffffffffffffffffffffffffff021916908373ffffffffffffffffffffffffffffffffffffffff160217905550600360009054906101000a900473ffffffffffffffffffffffffffffffffffffffff16600460006101000a81548173ffffffffffffffffffffffffffffffffffffffff021916908373ffffffffffffffffffffffffffffffffffffffff16021790555060005b8151811015620001b957600180600084848151811062000147577f4e487b7100000000000000000000000000000000000000000000000000000000600052603260045260246000fd5b602002602001015173ffffffffffffffffffffffffffffffffffffffff1673ffffffffffffffffffffffffffffffffffffffff16815260200190815260200160002060010160006101000a81548160ff0219169083151502179055508080620001b0906200046d565b915050620000fe565b50505062000544565b600033905090565b60008060009054906101000a900473ffffffffffffffffffffffffffffffffffffffff169050816000806101000a81548173ffffffffffffffffffffffffffffffffffffffff021916908373ffffffffffffffffffffffffffffffffffffffff1602179055508173ffffffffffffffffffffffffffffffffffffffff168173ffffffffffffffffffffffffffffffffffffffff167f8be0079c531659141344cd1fd0a4f28419497f9722a3daafe3b4186f6b6457e060405160405180910390a35050565b6000620002a56200029f84620003ca565b620003a1565b90508083825260208201905082856020860282011115620002c557600080fd5b60005b85811015620002f95781620002de888262000303565b845260208401935060208301925050600181019050620002c8565b5050509392505050565b60008151905062000314816200052a565b92915050565b600082601f8301126200032c57600080fd5b81516200033e8482602086016200028e565b91505092915050565b600080604083850312156200035b57600080fd5b60006200036b8582860162000303565b925050602083015167ffffffffffffffff8111156200038957600080fd5b62000397858286016200031a565b9150509250929050565b6000620003ad620003c0565b9050620003bb828262000437565b919050565b6000604051905090565b600067ffffffffffffffff821115620003e857620003e7620004ea565b5b602082029050602081019050919050565b600062000406826200040d565b9050919050565b600073ffffffffffffffffffffffffffffffffffffffff82169050919050565b6000819050919050565b620004428262000519565b810181811067ffffffffffffffff82111715620004645762000463620004ea565b5b80604052505050565b60006200047a826200042d565b91507fffffffffffffffffffffffffffffffffffffffffffffffffffffffffffffffff821415620004b057620004af620004bb565b5b600182019050919050565b7f4e487b7100000000000000000000000000000000000000000000000000000000600052601160045260246000fd5b7f4e487b7100000000000000000000000000000000000000000000000000000000600052604160045260246000fd5b6000601f19601f8301169050919050565b6200053581620003f9565b81146200054157600080fd5b50565b612ba280620005546000396000f3fe60806040526004361061009c5760003560e01c8063a91d6e9711610064578063a91d6e9714610162578063b47064c81461018b578063c188730a146101c9578063dd4be683146101f2578063efc908a114610230578063f2fde38b1461024c5761009c565b80631a8821db146100a1578063715018a6146100ca5780638da5cb5b146100e15780638e8f06ef1461010c578063996c6cc314610137575b600080fd5b3480156100ad57600080fd5b506100c860048036038101906100c39190611d08565b610275565b005b3480156100d657600080fd5b506100df6103bd565b005b3480156100ed57600080fd5b506100f6610445565b6040516101039190612144565b60405180910390f35b34801561011857600080fd5b5061012161046e565b60405161012e9190612144565b60405180910390f35b34801561014357600080fd5b5061014c610494565b6040516101599190612265565b60405180910390f35b34801561016e57600080fd5b5061018960048036038101906101849190611c60565b6104ba565b005b34801561019757600080fd5b506101b260048036038101906101ad9190611c60565b6106ab565b6040516101c092919061243d565b60405180910390f35b3480156101d557600080fd5b506101f060048036038101906101eb9190611c37565b6107c6565b005b3480156101fe57600080fd5b5061021960048036038101906102149190611c37565b610939565b60405161022792919061243d565b60405180910390f35b61024a60048036038101906102459190611c9c565b6109d8565b005b34801561025857600080fd5b50610273600480360381019061026e9190611c37565b610ac9565b005b600061028333858585610bc1565b9050600081111561036357600460009054906101000a900473ffffffffffffffffffffffffffffffffffffffff1673ffffffffffffffffffffffffffffffffffffffff16632e1a7d4d826040518263ffffffff1660e01b81526004016102e99190612422565b600060405180830381600087803b15801561030357600080fd5b505af1158015610317573d6000803e3d6000fd5b505050503373ffffffffffffffffffffffffffffffffffffffff166108fc829081150290604051600060405180830381858888f19350505050158015610361573d6000803e3d6000fd5b505b3373ffffffffffffffffffffffffffffffffffffffff167fb5f637f8c20fed62871356124e21e89f3ad4b738127afb96a3ae551434d61e6b858584426040516103af9493929190612212565b60405180910390a250505050565b6103c561111a565b73ffffffffffffffffffffffffffffffffffffffff166103e3610445565b73ffffffffffffffffffffffffffffffffffffffff1614610439576040517f08c379a0000000000000000000000000000000000000000000000000000000008152600401610430906123a2565b60405180910390fd5b6104436000611122565b565b60008060009054906101000a900473ffffffffffffffffffffffffffffffffffffffff16905090565b600360009054906101000a900473ffffffffffffffffffffffffffffffffffffffff1681565b600460009054906101000a900473ffffffffffffffffffffffffffffffffffffffff1681565b6104c261111a565b73ffffffffffffffffffffffffffffffffffffffff166104e0610445565b73ffffffffffffffffffffffffffffffffffffffff1614610536576040517f08c379a000000000000000000000000000000000000000000000000000000000815260040161052d906123a2565b60405180910390fd5b600061054283836106ab565b9150508015600260008573ffffffffffffffffffffffffffffffffffffffff1673ffffffffffffffffffffffffffffffffffffffff16815260200190815260200160002060008473ffffffffffffffffffffffffffffffffffffffff1673ffffffffffffffffffffffffffffffffffffffff16815260200190815260200160002060010160006101000a81548160ff0219169083151502179055507f8ad866bc4234cebe05101179482e12d47b74a92155da25f6fbf663a0814cf5958284600260008773ffffffffffffffffffffffffffffffffffffffff1673ffffffffffffffffffffffffffffffffffffffff16815260200190815260200160002060008673ffffffffffffffffffffffffffffffffffffffff1673ffffffffffffffffffffffffffffffffffffffff16815260200190815260200160002060010160009054906101000a900460ff164260405161069e949392919061215f565b60405180910390a1505050565b600080600260008573ffffffffffffffffffffffffffffffffffffffff1673ffffffffffffffffffffffffffffffffffffffff16815260200190815260200160002060008473ffffffffffffffffffffffffffffffffffffffff1673ffffffffffffffffffffffffffffffffffffffff16815260200190815260200160002060000154600260008673ffffffffffffffffffffffffffffffffffffffff1673ffffffffffffffffffffffffffffffffffffffff16815260200190815260200160002060008573ffffffffffffffffffffffffffffffffffffffff1673ffffffffffffffffffffffffffffffffffffffff16815260200190815260200160002060010160009054906101000a900460ff16915091509250929050565b6107ce61111a565b73ffffffffffffffffffffffffffffffffffffffff166107ec610445565b73ffffffffffffffffffffffffffffffffffffffff1614610842576040517f08c379a0000000000000000000000000000000000000000000000000000000008152600401610839906123a2565b60405180910390fd5b600061084d82610939565b9150508015600160008473ffffffffffffffffffffffffffffffffffffffff1673ffffffffffffffffffffffffffffffffffffffff16815260200190815260200160002060010160006101000a81548160ff0219169083151502179055507f2837d9fc7e60486f4c83a39db1eb339dc0a75622d37ffd6047809b5c001558a882600160008573ffffffffffffffffffffffffffffffffffffffff1673ffffffffffffffffffffffffffffffffffffffff16815260200190815260200160002060010160009054906101000a900460ff164260405161092d939291906121db565b60405180910390a15050565b600080600160008473ffffffffffffffffffffffffffffffffffffffff1673ffffffffffffffffffffffffffffffffffffffff16815260200190815260200160002060000154600160008573ffffffffffffffffffffffffffffffffffffffff1673ffffffffffffffffffffffffffffffffffffffff16815260200190815260200160002060010160009054906101000a900460ff1691509150915091565b6000341115610a6557600460009054906101000a900473ffffffffffffffffffffffffffffffffffffffff1673ffffffffffffffffffffffffffffffffffffffff1663d0e30db0346040518263ffffffff1660e01b81526004016000604051808303818588803b158015610a4b57600080fd5b505af1158015610a5f573d6000803e3d6000fd5b50505050505b610a71338383346111e6565b3373ffffffffffffffffffffffffffffffffffffffff167f4234dab93f5e2d72207f01a75c1166e40a8dc74023a47bb55dd13c428cb2d60283833442604051610abd9493929190612212565b60405180910390a25050565b610ad161111a565b73ffffffffffffffffffffffffffffffffffffffff16610aef610445565b73ffffffffffffffffffffffffffffffffffffffff1614610b45576040517f08c379a0000000000000000000000000000000000000000000000000000000008152600401610b3c906123a2565b60405180910390fd5b600073ffffffffffffffffffffffffffffffffffffffff168173ffffffffffffffffffffffffffffffffffffffff161415610bb5576040517f08c379a0000000000000000000000000000000000000000000000000000000008152600401610bac906122c2565b60405180910390fd5b610bbe81611122565b50565b60008251845114610c07576040517f08c379a0000000000000000000000000000000000000000000000000000000008152600401610bfe906122e2565b60405180910390fd5b60005b8451811015611111576000848281518110610c4e577f4e487b7100000000000000000000000000000000000000000000000000000000600052603260045260246000fd5b602002602001015111610c96576040517f08c379a0000000000000000000000000000000000000000000000000000000008152600401610c8d90612302565b60405180910390fd5b600080610ce2878481518110610cd5577f4e487b7100000000000000000000000000000000000000000000000000000000600052603260045260246000fd5b6020026020010151610939565b9150915080610d26576040517f08c379a0000000000000000000000000000000000000000000000000000000008152600401610d1d906122a2565b60405180910390fd5b600080610d738a8a8781518110610d66577f4e487b7100000000000000000000000000000000000000000000000000000000600052603260045260246000fd5b60200260200101516106ab565b9150915081888681518110610db1577f4e487b7100000000000000000000000000000000000000000000000000000000600052603260045260246000fd5b60200260200101511115610dfa576040517f08c379a0000000000000000000000000000000000000000000000000000000008152600401610df190612382565b60405180910390fd5b80610e3a576040517f08c379a0000000000000000000000000000000000000000000000000000000008152600401610e31906123c2565b60405180910390fd5b610ecf898681518110610e76577f4e487b7100000000000000000000000000000000000000000000000000000000600052603260045260246000fd5b6020026020010151898781518110610eb7577f4e487b7100000000000000000000000000000000000000000000000000000000600052603260045260246000fd5b602002602001015186610eca91906125dd565b6116d8565b610f65898681518110610f0b577f4e487b7100000000000000000000000000000000000000000000000000000000600052603260045260246000fd5b60200260200101518b8a8881518110610f4d577f4e487b7100000000000000000000000000000000000000000000000000000000600052603260045260246000fd5b602002602001015185610f6091906125dd565b611723565b600360009054906101000a900473ffffffffffffffffffffffffffffffffffffffff1673ffffffffffffffffffffffffffffffffffffffff16898681518110610fd7577f4e487b7100000000000000000000000000000000000000000000000000000000600052603260045260246000fd5b602002602001015173ffffffffffffffffffffffffffffffffffffffff16148015610fff5750865b1561104c5787858151811061103d577f4e487b7100000000000000000000000000000000000000000000000000000000600052603260045260246000fd5b602002602001015195506110fa565b6110f9308b8a888151811061108a577f4e487b7100000000000000000000000000000000000000000000000000000000600052603260045260246000fd5b60200260200101518c89815181106110cb577f4e487b7100000000000000000000000000000000000000000000000000000000600052603260045260246000fd5b602002602001015173ffffffffffffffffffffffffffffffffffffffff166117ac909392919063ffffffff16565b5b505050508080611109906126e1565b915050610c0a565b50949350505050565b600033905090565b60008060009054906101000a900473ffffffffffffffffffffffffffffffffffffffff169050816000806101000a81548173ffffffffffffffffffffffffffffffffffffffff021916908373ffffffffffffffffffffffffffffffffffffffff1602179055508173ffffffffffffffffffffffffffffffffffffffff168173ffffffffffffffffffffffffffffffffffffffff167f8be0079c531659141344cd1fd0a4f28419497f9722a3daafe3b4186f6b6457e060405160405180910390a35050565b60005b83518110156115f55760008061123e868481518110611231577f4e487b7100000000000000000000000000000000000000000000000000000000600052603260045260246000fd5b6020026020010151610939565b91509150600061128e88888681518110611281577f4e487b7100000000000000000000000000000000000000000000000000000000600052603260045260246000fd5b60200260200101516106ab565b509050816112d1576040517f08c379a00000000000000000000000000000000000000000000000000000000081526004016112c890612362565b60405180910390fd5b600086858151811061130c577f4e487b7100000000000000000000000000000000000000000000000000000000600052603260045260246000fd5b602002602001015111611354576040517f08c379a000000000000000000000000000000000000000000000000000000000815260040161134b90612322565b60405180910390fd5b600087858151811061138f577f4e487b7100000000000000000000000000000000000000000000000000000000600052603260045260246000fd5b6020026020010151905060008173ffffffffffffffffffffffffffffffffffffffff166370a08231306040518263ffffffff1660e01b81526004016113d49190612144565b60206040518083038186803b1580156113ec57600080fd5b505afa158015611400573d6000803e3d6000fd5b505050506040513d601f19601f820116820180604052508101906114249190611db0565b90506114938a308a8981518110611464577f4e487b7100000000000000000000000000000000000000000000000000000000600052603260045260246000fd5b60200260200101518573ffffffffffffffffffffffffffffffffffffffff166117ac909392919063ffffffff16565b60008273ffffffffffffffffffffffffffffffffffffffff166370a08231306040518263ffffffff1660e01b81526004016114ce9190612144565b60206040518083038186803b1580156114e657600080fd5b505afa1580156114fa573d6000803e3d6000fd5b505050506040513d601f19601f8201168201806040525081019061151e9190611db0565b90506000828261152e91906125dd565b90506115858b898151811061156c577f4e487b7100000000000000000000000000000000000000000000000000000000600052603260045260246000fd5b602002602001015182896115809190612587565b6116d8565b6115db8b89815181106115c1577f4e487b7100000000000000000000000000000000000000000000000000000000600052603260045260246000fd5b60200260200101518d83886115d69190612587565b611723565b5050505050505080806115ed906126e1565b9150506111e9565b5060008111156116d257600061162c600360009054906101000a900473ffffffffffffffffffffffffffffffffffffffff16610939565b509050600061165d86600360009054906101000a900473ffffffffffffffffffffffffffffffffffffffff166106ab565b509050611697600360009054906101000a900473ffffffffffffffffffffffffffffffffffffffff1684846116929190612587565b6116d8565b6116cf600360009054906101000a900473ffffffffffffffffffffffffffffffffffffffff168785846116ca9190612587565b611723565b50505b50505050565b80600160008473ffffffffffffffffffffffffffffffffffffffff1673ffffffffffffffffffffffffffffffffffffffff168152602001908152602001600020600001819055505050565b80600260008573ffffffffffffffffffffffffffffffffffffffff1673ffffffffffffffffffffffffffffffffffffffff16815260200190815260200160002060008473ffffffffffffffffffffffffffffffffffffffff1673ffffffffffffffffffffffffffffffffffffffff16815260200190815260200160002060000181905550505050565b61182f846323b872dd60e01b8585856040516024016117cd939291906121a4565b604051602081830303815290604052907bffffffffffffffffffffffffffffffffffffffffffffffffffffffff19166020820180517bffffffffffffffffffffffffffffffffffffffffffffffffffffffff8381831617835250505050611835565b50505050565b6000611897826040518060400160405280602081526020017f5361666545524332303a206c6f772d6c6576656c2063616c6c206661696c65648152508573ffffffffffffffffffffffffffffffffffffffff166118fc9092919063ffffffff16565b90506000815111156118f757808060200190518101906118b79190611d87565b6118f6576040517f08c379a00000000000000000000000000000000000000000000000000000000081526004016118ed90612402565b60405180910390fd5b5b505050565b606061190b8484600085611914565b90509392505050565b606082471015611959576040517f08c379a000000000000000000000000000000000000000000000000000000000815260040161195090612342565b60405180910390fd5b61196285611a28565b6119a1576040517f08c379a0000000000000000000000000000000000000000000000000000000008152600401611998906123e2565b60405180910390fd5b6000808673ffffffffffffffffffffffffffffffffffffffff1685876040516119ca919061212d565b60006040518083038185875af1925050503d8060008114611a07576040519150601f19603f3d011682016040523d82523d6000602084013e611a0c565b606091505b5091509150611a1c828286611a3b565b92505050949350505050565b600080823b905060008111915050919050565b60608315611a4b57829050611a9b565b600083511115611a5e5782518084602001fd5b816040517f08c379a0000000000000000000000000000000000000000000000000000000008152600401611a929190612280565b60405180910390fd5b9392505050565b6000611ab5611ab08461248b565b612466565b90508083825260208201905082856020860282011115611ad457600080fd5b60005b85811015611b045781611aea8882611b7a565b845260208401935060208301925050600181019050611ad7565b5050509392505050565b6000611b21611b1c846124b7565b612466565b90508083825260208201905082856020860282011115611b4057600080fd5b60005b85811015611b705781611b568882611c0d565b845260208401935060208301925050600181019050611b43565b5050509392505050565b600081359050611b8981612b27565b92915050565b600082601f830112611ba057600080fd5b8135611bb0848260208601611aa2565b91505092915050565b600082601f830112611bca57600080fd5b8135611bda848260208601611b0e565b91505092915050565b600081359050611bf281612b3e565b92915050565b600081519050611c0781612b3e565b92915050565b600081359050611c1c81612b55565b92915050565b600081519050611c3181612b55565b92915050565b600060208284031215611c4957600080fd5b6000611c5784828501611b7a565b91505092915050565b60008060408385031215611c7357600080fd5b6000611c8185828601611b7a565b9250506020611c9285828601611b7a565b9150509250929050565b60008060408385031215611caf57600080fd5b600083013567ffffffffffffffff811115611cc957600080fd5b611cd585828601611b8f565b925050602083013567ffffffffffffffff811115611cf257600080fd5b611cfe85828601611bb9565b9150509250929050565b600080600060608486031215611d1d57600080fd5b600084013567ffffffffffffffff811115611d3757600080fd5b611d4386828701611b8f565b935050602084013567ffffffffffffffff811115611d6057600080fd5b611d6c86828701611bb9565b9250506040611d7d86828701611be3565b9150509250925092565b600060208284031215611d9957600080fd5b6000611da784828501611bf8565b91505092915050565b600060208284031215611dc257600080fd5b6000611dd084828501611c22565b91505092915050565b6000611de58383611e09565b60208301905092915050565b6000611dfd838361210f565b60208301905092915050565b611e1281612611565b82525050565b611e2181612611565b82525050565b6000611e3282612503565b611e3c8185612549565b9350611e47836124e3565b8060005b83811015611e78578151611e5f8882611dd9565b9750611e6a8361252f565b925050600181019050611e4b565b5085935050505092915050565b6000611e908261250e565b611e9a818561255a565b9350611ea5836124f3565b8060005b83811015611ed6578151611ebd8882611df1565b9750611ec88361253c565b925050600181019050611ea9565b5085935050505092915050565b611eec81612623565b82525050565b6000611efd82612519565b611f07818561256b565b9350611f1781856020860161267d565b80840191505092915050565b611f2c81612659565b82525050565b6000611f3d82612524565b611f478185612576565b9350611f5781856020860161267d565b611f6081612788565b840191505092915050565b6000611f78603583612576565b9150611f8382612799565b604082019050919050565b6000611f9b602683612576565b9150611fa6826127e8565b604082019050919050565b6000611fbe604883612576565b9150611fc982612837565b606082019050919050565b6000611fe1603a83612576565b9150611fec826128ac565b604082019050919050565b6000612004603883612576565b915061200f826128fb565b604082019050919050565b6000612027602683612576565b91506120328261294a565b604082019050919050565b600061204a603483612576565b915061205582612999565b604082019050919050565b600061206d603583612576565b9150612078826129e8565b604082019050919050565b6000612090602083612576565b915061209b82612a37565b602082019050919050565b60006120b3603f83612576565b91506120be82612a60565b604082019050919050565b60006120d6601d83612576565b91506120e182612aaf565b602082019050919050565b60006120f9602a83612576565b915061210482612ad8565b604082019050919050565b6121188161264f565b82525050565b6121278161264f565b82525050565b60006121398284611ef2565b915081905092915050565b60006020820190506121596000830184611e18565b92915050565b60006080820190506121746000830187611e18565b6121816020830186611e18565b61218e6040830185611ee3565b61219b606083018461211e565b95945050505050565b60006060820190506121b96000830186611e18565b6121c66020830185611e18565b6121d3604083018461211e565b949350505050565b60006060820190506121f06000830186611e18565b6121fd6020830185611ee3565b61220a604083018461211e565b949350505050565b6000608082019050818103600083015261222c8187611e27565b905081810360208301526122408186611e85565b905061224f604083018561211e565b61225c606083018461211e565b95945050505050565b600060208201905061227a6000830184611f23565b92915050565b6000602082019050818103600083015261229a8184611f32565b905092915050565b600060208201905081810360008301526122bb81611f6b565b9050919050565b600060208201905081810360008301526122db81611f8e565b9050919050565b600060208201905081810360008301526122fb81611fb1565b9050919050565b6000602082019050818103600083015261231b81611fd4565b9050919050565b6000602082019050818103600083015261233b81611ff7565b9050919050565b6000602082019050818103600083015261235b8161201a565b9050919050565b6000602082019050818103600083015261237b8161203d565b9050919050565b6000602082019050818103600083015261239b81612060565b9050919050565b600060208201905081810360008301526123bb81612083565b9050919050565b600060208201905081810360008301526123db816120a6565b9050919050565b600060208201905081810360008301526123fb816120c9565b9050919050565b6000602082019050818103600083015261241b816120ec565b9050919050565b6000602082019050612437600083018461211e565b92915050565b6000604082019050612452600083018561211e565b61245f6020830184611ee3565b9392505050565b6000612470612481565b905061247c82826126b0565b919050565b6000604051905090565b600067ffffffffffffffff8211156124a6576124a5612759565b5b602082029050602081019050919050565b600067ffffffffffffffff8211156124d2576124d1612759565b5b602082029050602081019050919050565b6000819050602082019050919050565b6000819050602082019050919050565b600081519050919050565b600081519050919050565b600081519050919050565b600081519050919050565b6000602082019050919050565b6000602082019050919050565b600082825260208201905092915050565b600082825260208201905092915050565b600081905092915050565b600082825260208201905092915050565b60006125928261264f565b915061259d8361264f565b9250827fffffffffffffffffffffffffffffffffffffffffffffffffffffffffffffffff038211156125d2576125d161272a565b5b828201905092915050565b60006125e88261264f565b91506125f38361264f565b9250828210156126065761260561272a565b5b828203905092915050565b600061261c8261262f565b9050919050565b60008115159050919050565b600073ffffffffffffffffffffffffffffffffffffffff82169050919050565b6000819050919050565b60006126648261266b565b9050919050565b60006126768261262f565b9050919050565b60005b8381101561269b578082015181840152602081019050612680565b838111156126aa576000848401525b50505050565b6126b982612788565b810181811067ffffffffffffffff821117156126d8576126d7612759565b5b80604052505050565b60006126ec8261264f565b91507fffffffffffffffffffffffffffffffffffffffffffffffffffffffffffffffff82141561271f5761271e61272a565b5b600182019050919050565b7f4e487b7100000000000000000000000000000000000000000000000000000000600052601160045260246000fd5b7f4e487b7100000000000000000000000000000000000000000000000000000000600052604160045260246000fd5b6000601f19601f8301169050919050565b7f576974686472617748616e646c65723a205468697320746f6b656e206973206e60008201527f6f742061626c6520746f20626520627269646765640000000000000000000000602082015250565b7f4f776e61626c653a206e6577206f776e657220697320746865207a65726f206160008201527f6464726573730000000000000000000000000000000000000000000000000000602082015250565b7f576974686472617748616e646c65723a20546f6b656e73206172726179206c6560008201527f6e67746820646f6573206e6f74206d6174636820616d6f756e7473206172726160208201527f79206c656e677468000000000000000000000000000000000000000000000000604082015250565b7f576974686472617748616e646c65723a20576974686472617720616d6f756e7460008201527f206d7573742062652067726561746572207468616e207a65726f000000000000602082015250565b7f4465706f73697448616e646c65723a204465706f73697420616d6f756e74206d60008201527f7573742062652067726561746572207468616e207a65726f0000000000000000602082015250565b7f416464726573733a20696e73756666696369656e742062616c616e636520666f60008201527f722063616c6c0000000000000000000000000000000000000000000000000000602082015250565b7f4465706f73697448616e646c65723a205468697320746f6b656e206973206e6f60008201527f742061626c6520746f2062652062726964676564000000000000000000000000602082015250565b7f576974686472617748616e646c65723a20576974686472617720616d6f756e7460008201527f206578636565647320757365722062616c616e63650000000000000000000000602082015250565b7f4f776e61626c653a2063616c6c6572206973206e6f7420746865206f776e6572600082015250565b7f576974686472617748616e646c65723a20546f6b656e7320617265206c6f636b60008201527f6564206f6e20746865206f7468657220636861696e2063757272656e746c7900602082015250565b7f416464726573733a2063616c6c20746f206e6f6e2d636f6e7472616374000000600082015250565b7f5361666545524332303a204552433230206f7065726174696f6e20646964206e60008201527f6f74207375636365656400000000000000000000000000000000000000000000602082015250565b612b3081612611565b8114612b3b57600080fd5b50565b612b4781612623565b8114612b5257600080fd5b50565b612b5e8161264f565b8114612b6957600080fd5b5056fea2646970667358221220d777a82b3a2ea198c6e85aa201a7f2c6ba81c01fd803a94048439f8dc939ba5564736f6c63430008040033",
  "linkReferences": {},
  "deployedLinkReferences": {}
}