{
  "_format": "hh-sol-artifact-1",
  "contractName": "Bridge",
  "sourceName": "contracts/core/Bridge.sol",
  "abi": [
    {
      "anonymous": false,
      "inputs": [
        {
          "indexed": true,
          "internalType": "address",
          "name": "user",
          "type": "address"
        },
        {
          "indexed": false,
          "internalType": "address[]",
          "name": "tokens",
          "type": "address[]"
        },
        {
          "indexed": false,
          "internalType": "uint256[]",
          "name": "tokenAmounts",
          "type": "uint256[]"
        },
        {
          "indexed": false,
          "internalType": "uint256",
          "name": "ethAmount",
          "type": "uint256"
        }
      ],
      "name": "Deposit",
      "type": "event"
    },
    {
      "anonymous": false,
      "inputs": [
        {
          "indexed": true,
          "internalType": "address",
          "name": "previousOwner",
          "type": "address"
        },
        {
          "indexed": true,
          "internalType": "address",
          "name": "newOwner",
          "type": "address"
        }
      ],
      "name": "OwnershipTransferred",
      "type": "event"
    },
    {
      "anonymous": false,
      "inputs": [
        {
          "indexed": false,
          "internalType": "address",
          "name": "asset",
          "type": "address"
        },
        {
          "indexed": false,
          "internalType": "bool",
          "name": "state",
          "type": "bool"
        }
      ],
      "name": "TokenBridgeabilityUpdated",
      "type": "event"
    },
    {
      "anonymous": false,
      "inputs": [
        {
          "indexed": false,
          "internalType": "address",
          "name": "user",
          "type": "address"
        },
        {
          "indexed": false,
          "internalType": "address",
          "name": "asset",
          "type": "address"
        },
        {
          "indexed": false,
          "internalType": "bool",
          "name": "state",
          "type": "bool"
        }
      ],
      "name": "UserTokenLocationUpdated",
      "type": "event"
    },
    {
      "anonymous": false,
      "inputs": [
        {
          "indexed": true,
          "internalType": "address",
          "name": "user",
          "type": "address"
        },
        {
          "indexed": false,
          "internalType": "address[]",
          "name": "tokens",
          "type": "address[]"
        },
        {
          "indexed": false,
          "internalType": "uint256[]",
          "name": "tokenAmounts",
          "type": "uint256[]"
        },
        {
          "indexed": false,
          "internalType": "uint256",
          "name": "ethAmount",
          "type": "uint256"
        }
      ],
      "name": "Withdraw",
      "type": "event"
    },
    {
      "inputs": [
        {
          "internalType": "address[]",
          "name": "tokens",
          "type": "address[]"
        },
        {
          "internalType": "uint256[]",
          "name": "amounts",
          "type": "uint256[]"
        }
      ],
      "name": "deposit",
      "outputs": [],
      "stateMutability": "payable",
      "type": "function"
    },
    {
      "inputs": [],
      "name": "owner",
      "outputs": [
        {
          "internalType": "address",
          "name": "",
          "type": "address"
        }
      ],
      "stateMutability": "view",
      "type": "function"
    },
    {
      "inputs": [],
      "name": "renounceOwnership",
      "outputs": [],
      "stateMutability": "nonpayable",
      "type": "function"
    },
    {
      "inputs": [
        {
          "internalType": "address",
          "name": "asset",
          "type": "address"
        }
      ],
      "name": "setTokenBridgeability",
      "outputs": [],
      "stateMutability": "nonpayable",
      "type": "function"
    },
    {
      "inputs": [
        {
          "internalType": "address",
          "name": "asset",
          "type": "address"
        },
        {
          "internalType": "address",
          "name": "account",
          "type": "address"
        }
      ],
      "name": "setUserTokenLocation",
      "outputs": [],
      "stateMutability": "nonpayable",
      "type": "function"
    },
    {
      "inputs": [
        {
          "internalType": "address",
          "name": "asset",
          "type": "address"
        }
      ],
      "name": "tokenDetails",
      "outputs": [
        {
          "internalType": "uint256",
          "name": "",
          "type": "uint256"
        },
        {
          "internalType": "bool",
          "name": "",
          "type": "bool"
        }
      ],
      "stateMutability": "view",
      "type": "function"
    },
    {
      "inputs": [
        {
          "internalType": "address",
          "name": "newOwner",
          "type": "address"
        }
      ],
      "name": "transferOwnership",
      "outputs": [],
      "stateMutability": "nonpayable",
      "type": "function"
    },
    {
      "inputs": [
        {
          "internalType": "address",
          "name": "asset",
          "type": "address"
        },
        {
          "internalType": "address",
          "name": "account",
          "type": "address"
        }
      ],
      "name": "userTokenBalance",
      "outputs": [
        {
          "internalType": "uint256",
          "name": "",
          "type": "uint256"
        },
        {
          "internalType": "bool",
          "name": "",
          "type": "bool"
        }
      ],
      "stateMutability": "view",
      "type": "function"
    },
    {
      "inputs": [],
      "name": "wethAddress",
      "outputs": [
        {
          "internalType": "address",
          "name": "",
          "type": "address"
        }
      ],
      "stateMutability": "view",
      "type": "function"
    },
    {
      "inputs": [
        {
          "internalType": "address[]",
          "name": "tokens",
          "type": "address[]"
        },
        {
          "internalType": "uint256[]",
          "name": "amounts",
          "type": "uint256[]"
        },
        {
          "internalType": "bool",
          "name": "withdrawWethAsEth",
          "type": "bool"
        }
      ],
      "name": "withdraw",
      "outputs": [],
      "stateMutability": "nonpayable",
      "type": "function"
    }
  ],
  "bytecode": "0x60806040526000600360006101000a81548173ffffffffffffffffffffffffffffffffffffffff021916908373ffffffffffffffffffffffffffffffffffffffff1602179055503480156200005357600080fd5b5062000074620000686200007a60201b60201c565b6200008260201b60201c565b62000146565b600033905090565b60008060009054906101000a900473ffffffffffffffffffffffffffffffffffffffff169050816000806101000a81548173ffffffffffffffffffffffffffffffffffffffff021916908373ffffffffffffffffffffffffffffffffffffffff1602179055508173ffffffffffffffffffffffffffffffffffffffff168173ffffffffffffffffffffffffffffffffffffffff167f8be0079c531659141344cd1fd0a4f28419497f9722a3daafe3b4186f6b6457e060405160405180910390a35050565b612acc80620001566000396000f3fe6080604052600436106100915760003560e01c8063b47064c811610059578063b47064c814610155578063c188730a14610193578063dd4be683146101bc578063efc908a1146101fa578063f2fde38b1461021657610091565b80631a8821db146100965780634f0e0ef3146100bf578063715018a6146100ea5780638da5cb5b14610101578063a91d6e971461012c575b600080fd5b3480156100a257600080fd5b506100bd60048036038101906100b89190611caa565b61023f565b005b3480156100cb57600080fd5b506100d4610385565b6040516100e191906120d7565b60405180910390f35b3480156100f657600080fd5b506100ff6103ab565b005b34801561010d57600080fd5b50610116610433565b60405161012391906120d7565b60405180910390f35b34801561013857600080fd5b50610153600480360381019061014e9190611c02565b61045c565b005b34801561016157600080fd5b5061017c60048036038101906101779190611c02565b61064b565b60405161018a92919061238b565b60405180910390f35b34801561019f57600080fd5b506101ba60048036038101906101b59190611bd9565b610766565b005b3480156101c857600080fd5b506101e360048036038101906101de9190611bd9565b6108d7565b6040516101f192919061238b565b60405180910390f35b610214600480360381019061020f9190611c3e565b610976565b005b34801561022257600080fd5b5061023d60048036038101906102389190611bd9565b610a6b565b005b600061024d33858585610b63565b9050600081111561032d57600360009054906101000a900473ffffffffffffffffffffffffffffffffffffffff1673ffffffffffffffffffffffffffffffffffffffff16632e1a7d4d826040518263ffffffff1660e01b81526004016102b39190612370565b600060405180830381600087803b1580156102cd57600080fd5b505af11580156102e1573d6000803e3d6000fd5b505050503373ffffffffffffffffffffffffffffffffffffffff166108fc829081150290604051600060405180830381858888f1935050505015801561032b573d6000803e3d6000fd5b505b3373ffffffffffffffffffffffffffffffffffffffff167f91e54360cfab588303c49bbbb2869608cb9a9fd5ff9b4431f86988f91290421d85858460405161037793929190612189565b60405180910390a250505050565b600360009054906101000a900473ffffffffffffffffffffffffffffffffffffffff1681565b6103b36110bc565b73ffffffffffffffffffffffffffffffffffffffff166103d1610433565b73ffffffffffffffffffffffffffffffffffffffff1614610427576040517f08c379a000000000000000000000000000000000000000000000000000000000815260040161041e906122f0565b60405180910390fd5b61043160006110c4565b565b60008060009054906101000a900473ffffffffffffffffffffffffffffffffffffffff16905090565b6104646110bc565b73ffffffffffffffffffffffffffffffffffffffff16610482610433565b73ffffffffffffffffffffffffffffffffffffffff16146104d8576040517f08c379a00000000000000000000000000000000000000000000000000000000081526004016104cf906122f0565b60405180910390fd5b60006104e4838361064b565b9150508015600260008573ffffffffffffffffffffffffffffffffffffffff1673ffffffffffffffffffffffffffffffffffffffff16815260200190815260200160002060008473ffffffffffffffffffffffffffffffffffffffff1673ffffffffffffffffffffffffffffffffffffffff16815260200190815260200160002060010160006101000a81548160ff0219169083151502179055507fd895a12fd6341545cb0af62dbcd0d6b1b77e650518ab751f6172b8000c02bfca8284600260008773ffffffffffffffffffffffffffffffffffffffff1673ffffffffffffffffffffffffffffffffffffffff16815260200190815260200160002060008673ffffffffffffffffffffffffffffffffffffffff1673ffffffffffffffffffffffffffffffffffffffff16815260200190815260200160002060010160009054906101000a900460ff1660405161063e939291906120f2565b60405180910390a1505050565b600080600260008573ffffffffffffffffffffffffffffffffffffffff1673ffffffffffffffffffffffffffffffffffffffff16815260200190815260200160002060008473ffffffffffffffffffffffffffffffffffffffff1673ffffffffffffffffffffffffffffffffffffffff16815260200190815260200160002060000154600260008673ffffffffffffffffffffffffffffffffffffffff1673ffffffffffffffffffffffffffffffffffffffff16815260200190815260200160002060008573ffffffffffffffffffffffffffffffffffffffff1673ffffffffffffffffffffffffffffffffffffffff16815260200190815260200160002060010160009054906101000a900460ff16915091509250929050565b61076e6110bc565b73ffffffffffffffffffffffffffffffffffffffff1661078c610433565b73ffffffffffffffffffffffffffffffffffffffff16146107e2576040517f08c379a00000000000000000000000000000000000000000000000000000000081526004016107d9906122f0565b60405180910390fd5b60006107ed826108d7565b9150508015600160008473ffffffffffffffffffffffffffffffffffffffff1673ffffffffffffffffffffffffffffffffffffffff16815260200190815260200160002060010160006101000a81548160ff0219169083151502179055507f0c73d3d3183fec32a296161bcaf4061e064abaf4a9ff93801b56fb371ad28dd282600160008573ffffffffffffffffffffffffffffffffffffffff1673ffffffffffffffffffffffffffffffffffffffff16815260200190815260200160002060010160009054906101000a900460ff166040516108cb929190612160565b60405180910390a15050565b600080600160008473ffffffffffffffffffffffffffffffffffffffff1673ffffffffffffffffffffffffffffffffffffffff16815260200190815260200160002060000154600160008573ffffffffffffffffffffffffffffffffffffffff1673ffffffffffffffffffffffffffffffffffffffff16815260200190815260200160002060010160009054906101000a900460ff1691509150915091565b6000341115610a09576000600360009054906101000a900473ffffffffffffffffffffffffffffffffffffffff1690508073ffffffffffffffffffffffffffffffffffffffff1663d0e30db0346040518263ffffffff1660e01b81526004016000604051808303818588803b1580156109ee57600080fd5b505af1158015610a02573d6000803e3d6000fd5b5050505050505b610a1533838334611188565b3373ffffffffffffffffffffffffffffffffffffffff167f8a0e0d2e597a2c18e7266d384fcd37c696485c4f2d04f8f90cebe3cf9453a15b838334604051610a5f93929190612189565b60405180910390a25050565b610a736110bc565b73ffffffffffffffffffffffffffffffffffffffff16610a91610433565b73ffffffffffffffffffffffffffffffffffffffff1614610ae7576040517f08c379a0000000000000000000000000000000000000000000000000000000008152600401610ade906122f0565b60405180910390fd5b600073ffffffffffffffffffffffffffffffffffffffff168173ffffffffffffffffffffffffffffffffffffffff161415610b57576040517f08c379a0000000000000000000000000000000000000000000000000000000008152600401610b4e906121f0565b60405180910390fd5b610b60816110c4565b50565b60008251845114610ba9576040517f08c379a0000000000000000000000000000000000000000000000000000000008152600401610ba090612210565b60405180910390fd5b60005b84518110156110b3576000848281518110610bf0577f4e487b7100000000000000000000000000000000000000000000000000000000600052603260045260246000fd5b602002602001015111610c38576040517f08c379a0000000000000000000000000000000000000000000000000000000008152600401610c2f90612230565b60405180910390fd5b600080610c84878481518110610c77577f4e487b7100000000000000000000000000000000000000000000000000000000600052603260045260246000fd5b60200260200101516108d7565b9150915080610cc8576040517f08c379a0000000000000000000000000000000000000000000000000000000008152600401610cbf906122d0565b60405180910390fd5b600080610d158a8a8781518110610d08577f4e487b7100000000000000000000000000000000000000000000000000000000600052603260045260246000fd5b602002602001015161064b565b9150915081888681518110610d53577f4e487b7100000000000000000000000000000000000000000000000000000000600052603260045260246000fd5b60200260200101511115610d9c576040517f08c379a0000000000000000000000000000000000000000000000000000000008152600401610d93906122b0565b60405180910390fd5b80610ddc576040517f08c379a0000000000000000000000000000000000000000000000000000000008152600401610dd390612310565b60405180910390fd5b610e71898681518110610e18577f4e487b7100000000000000000000000000000000000000000000000000000000600052603260045260246000fd5b6020026020010151898781518110610e59577f4e487b7100000000000000000000000000000000000000000000000000000000600052603260045260246000fd5b602002602001015186610e6c919061252b565b61167a565b610f07898681518110610ead577f4e487b7100000000000000000000000000000000000000000000000000000000600052603260045260246000fd5b60200260200101518b8a8881518110610eef577f4e487b7100000000000000000000000000000000000000000000000000000000600052603260045260246000fd5b602002602001015185610f02919061252b565b6116c5565b600360009054906101000a900473ffffffffffffffffffffffffffffffffffffffff1673ffffffffffffffffffffffffffffffffffffffff16898681518110610f79577f4e487b7100000000000000000000000000000000000000000000000000000000600052603260045260246000fd5b602002602001015173ffffffffffffffffffffffffffffffffffffffff16148015610fa15750865b15610fee57878581518110610fdf577f4e487b7100000000000000000000000000000000000000000000000000000000600052603260045260246000fd5b6020026020010151955061109c565b61109b308b8a888151811061102c577f4e487b7100000000000000000000000000000000000000000000000000000000600052603260045260246000fd5b60200260200101518c898151811061106d577f4e487b7100000000000000000000000000000000000000000000000000000000600052603260045260246000fd5b602002602001015173ffffffffffffffffffffffffffffffffffffffff1661174e909392919063ffffffff16565b5b5050505080806110ab9061260b565b915050610bac565b50949350505050565b600033905090565b60008060009054906101000a900473ffffffffffffffffffffffffffffffffffffffff169050816000806101000a81548173ffffffffffffffffffffffffffffffffffffffff021916908373ffffffffffffffffffffffffffffffffffffffff1602179055508173ffffffffffffffffffffffffffffffffffffffff168173ffffffffffffffffffffffffffffffffffffffff167f8be0079c531659141344cd1fd0a4f28419497f9722a3daafe3b4186f6b6457e060405160405180910390a35050565b60005b8351811015611597576000806111e08684815181106111d3577f4e487b7100000000000000000000000000000000000000000000000000000000600052603260045260246000fd5b60200260200101516108d7565b91509150600061123088888681518110611223577f4e487b7100000000000000000000000000000000000000000000000000000000600052603260045260246000fd5b602002602001015161064b565b50905081611273576040517f08c379a000000000000000000000000000000000000000000000000000000000815260040161126a90612290565b60405180910390fd5b60008685815181106112ae577f4e487b7100000000000000000000000000000000000000000000000000000000600052603260045260246000fd5b6020026020010151116112f6576040517f08c379a00000000000000000000000000000000000000000000000000000000081526004016112ed90612250565b60405180910390fd5b6000878581518110611331577f4e487b7100000000000000000000000000000000000000000000000000000000600052603260045260246000fd5b6020026020010151905060008173ffffffffffffffffffffffffffffffffffffffff166370a08231306040518263ffffffff1660e01b815260040161137691906120d7565b60206040518083038186803b15801561138e57600080fd5b505afa1580156113a2573d6000803e3d6000fd5b505050506040513d601f19601f820116820180604052508101906113c69190611d52565b90506114358a308a8981518110611406577f4e487b7100000000000000000000000000000000000000000000000000000000600052603260045260246000fd5b60200260200101518573ffffffffffffffffffffffffffffffffffffffff1661174e909392919063ffffffff16565b60008273ffffffffffffffffffffffffffffffffffffffff166370a08231306040518263ffffffff1660e01b815260040161147091906120d7565b60206040518083038186803b15801561148857600080fd5b505afa15801561149c573d6000803e3d6000fd5b505050506040513d601f19601f820116820180604052508101906114c09190611d52565b9050600082826114d0919061252b565b90506115278b898151811061150e577f4e487b7100000000000000000000000000000000000000000000000000000000600052603260045260246000fd5b6020026020010151828961152291906124d5565b61167a565b61157d8b8981518110611563577f4e487b7100000000000000000000000000000000000000000000000000000000600052603260045260246000fd5b60200260200101518d838861157891906124d5565b6116c5565b50505050505050808061158f9061260b565b91505061118b565b5060008111156116745760006115ce600360009054906101000a900473ffffffffffffffffffffffffffffffffffffffff166108d7565b50905060006115ff86600360009054906101000a900473ffffffffffffffffffffffffffffffffffffffff1661064b565b509050611639600360009054906101000a900473ffffffffffffffffffffffffffffffffffffffff16848461163491906124d5565b61167a565b611671600360009054906101000a900473ffffffffffffffffffffffffffffffffffffffff1687858461166c91906124d5565b6116c5565b50505b50505050565b80600160008473ffffffffffffffffffffffffffffffffffffffff1673ffffffffffffffffffffffffffffffffffffffff168152602001908152602001600020600001819055505050565b80600260008573ffffffffffffffffffffffffffffffffffffffff1673ffffffffffffffffffffffffffffffffffffffff16815260200190815260200160002060008473ffffffffffffffffffffffffffffffffffffffff1673ffffffffffffffffffffffffffffffffffffffff16815260200190815260200160002060000181905550505050565b6117d1846323b872dd60e01b85858560405160240161176f93929190612129565b604051602081830303815290604052907bffffffffffffffffffffffffffffffffffffffffffffffffffffffff19166020820180517bffffffffffffffffffffffffffffffffffffffffffffffffffffffff83818316178352505050506117d7565b50505050565b6000611839826040518060400160405280602081526020017f5361666545524332303a206c6f772d6c6576656c2063616c6c206661696c65648152508573ffffffffffffffffffffffffffffffffffffffff1661189e9092919063ffffffff16565b905060008151111561189957808060200190518101906118599190611d29565b611898576040517f08c379a000000000000000000000000000000000000000000000000000000000815260040161188f90612350565b60405180910390fd5b5b505050565b60606118ad84846000856118b6565b90509392505050565b6060824710156118fb576040517f08c379a00000000000000000000000000000000000000000000000000000000081526004016118f290612270565b60405180910390fd5b611904856119ca565b611943576040517f08c379a000000000000000000000000000000000000000000000000000000000815260040161193a90612330565b60405180910390fd5b6000808673ffffffffffffffffffffffffffffffffffffffff16858760405161196c91906120c0565b60006040518083038185875af1925050503d80600081146119a9576040519150601f19603f3d011682016040523d82523d6000602084013e6119ae565b606091505b50915091506119be8282866119dd565b92505050949350505050565b600080823b905060008111915050919050565b606083156119ed57829050611a3d565b600083511115611a005782518084602001fd5b816040517f08c379a0000000000000000000000000000000000000000000000000000000008152600401611a3491906121ce565b60405180910390fd5b9392505050565b6000611a57611a52846123d9565b6123b4565b90508083825260208201905082856020860282011115611a7657600080fd5b60005b85811015611aa65781611a8c8882611b1c565b845260208401935060208301925050600181019050611a79565b5050509392505050565b6000611ac3611abe84612405565b6123b4565b90508083825260208201905082856020860282011115611ae257600080fd5b60005b85811015611b125781611af88882611baf565b845260208401935060208301925050600181019050611ae5565b5050509392505050565b600081359050611b2b81612a51565b92915050565b600082601f830112611b4257600080fd5b8135611b52848260208601611a44565b91505092915050565b600082601f830112611b6c57600080fd5b8135611b7c848260208601611ab0565b91505092915050565b600081359050611b9481612a68565b92915050565b600081519050611ba981612a68565b92915050565b600081359050611bbe81612a7f565b92915050565b600081519050611bd381612a7f565b92915050565b600060208284031215611beb57600080fd5b6000611bf984828501611b1c565b91505092915050565b60008060408385031215611c1557600080fd5b6000611c2385828601611b1c565b9250506020611c3485828601611b1c565b9150509250929050565b60008060408385031215611c5157600080fd5b600083013567ffffffffffffffff811115611c6b57600080fd5b611c7785828601611b31565b925050602083013567ffffffffffffffff811115611c9457600080fd5b611ca085828601611b5b565b9150509250929050565b600080600060608486031215611cbf57600080fd5b600084013567ffffffffffffffff811115611cd957600080fd5b611ce586828701611b31565b935050602084013567ffffffffffffffff811115611d0257600080fd5b611d0e86828701611b5b565b9250506040611d1f86828701611b85565b9150509250925092565b600060208284031215611d3b57600080fd5b6000611d4984828501611b9a565b91505092915050565b600060208284031215611d6457600080fd5b6000611d7284828501611bc4565b91505092915050565b6000611d878383611dab565b60208301905092915050565b6000611d9f83836120a2565b60208301905092915050565b611db48161255f565b82525050565b611dc38161255f565b82525050565b6000611dd482612451565b611dde8185612497565b9350611de983612431565b8060005b83811015611e1a578151611e018882611d7b565b9750611e0c8361247d565b925050600181019050611ded565b5085935050505092915050565b6000611e328261245c565b611e3c81856124a8565b9350611e4783612441565b8060005b83811015611e78578151611e5f8882611d93565b9750611e6a8361248a565b925050600181019050611e4b565b5085935050505092915050565b611e8e81612571565b82525050565b6000611e9f82612467565b611ea981856124b9565b9350611eb98185602086016125a7565b80840191505092915050565b6000611ed082612472565b611eda81856124c4565b9350611eea8185602086016125a7565b611ef3816126b2565b840191505092915050565b6000611f0b6026836124c4565b9150611f16826126c3565b604082019050919050565b6000611f2e6048836124c4565b9150611f3982612712565b606082019050919050565b6000611f51603a836124c4565b9150611f5c82612787565b604082019050919050565b6000611f746038836124c4565b9150611f7f826127d6565b604082019050919050565b6000611f976026836124c4565b9150611fa282612825565b604082019050919050565b6000611fba6034836124c4565b9150611fc582612874565b604082019050919050565b6000611fdd6035836124c4565b9150611fe8826128c3565b604082019050919050565b60006120006038836124c4565b915061200b82612912565b604082019050919050565b60006120236020836124c4565b915061202e82612961565b602082019050919050565b6000612046603f836124c4565b91506120518261298a565b604082019050919050565b6000612069601d836124c4565b9150612074826129d9565b602082019050919050565b600061208c602a836124c4565b915061209782612a02565b604082019050919050565b6120ab8161259d565b82525050565b6120ba8161259d565b82525050565b60006120cc8284611e94565b915081905092915050565b60006020820190506120ec6000830184611dba565b92915050565b60006060820190506121076000830186611dba565b6121146020830185611dba565b6121216040830184611e85565b949350505050565b600060608201905061213e6000830186611dba565b61214b6020830185611dba565b61215860408301846120b1565b949350505050565b60006040820190506121756000830185611dba565b6121826020830184611e85565b9392505050565b600060608201905081810360008301526121a38186611dc9565b905081810360208301526121b78185611e27565b90506121c660408301846120b1565b949350505050565b600060208201905081810360008301526121e88184611ec5565b905092915050565b6000602082019050818103600083015261220981611efe565b9050919050565b6000602082019050818103600083015261222981611f21565b9050919050565b6000602082019050818103600083015261224981611f44565b9050919050565b6000602082019050818103600083015261226981611f67565b9050919050565b6000602082019050818103600083015261228981611f8a565b9050919050565b600060208201905081810360008301526122a981611fad565b9050919050565b600060208201905081810360008301526122c981611fd0565b9050919050565b600060208201905081810360008301526122e981611ff3565b9050919050565b6000602082019050818103600083015261230981612016565b9050919050565b6000602082019050818103600083015261232981612039565b9050919050565b600060208201905081810360008301526123498161205c565b9050919050565b600060208201905081810360008301526123698161207f565b9050919050565b600060208201905061238560008301846120b1565b92915050565b60006040820190506123a060008301856120b1565b6123ad6020830184611e85565b9392505050565b60006123be6123cf565b90506123ca82826125da565b919050565b6000604051905090565b600067ffffffffffffffff8211156123f4576123f3612683565b5b602082029050602081019050919050565b600067ffffffffffffffff8211156124205761241f612683565b5b602082029050602081019050919050565b6000819050602082019050919050565b6000819050602082019050919050565b600081519050919050565b600081519050919050565b600081519050919050565b600081519050919050565b6000602082019050919050565b6000602082019050919050565b600082825260208201905092915050565b600082825260208201905092915050565b600081905092915050565b600082825260208201905092915050565b60006124e08261259d565b91506124eb8361259d565b9250827fffffffffffffffffffffffffffffffffffffffffffffffffffffffffffffffff038211156125205761251f612654565b5b828201905092915050565b60006125368261259d565b91506125418361259d565b92508282101561255457612553612654565b5b828203905092915050565b600061256a8261257d565b9050919050565b60008115159050919050565b600073ffffffffffffffffffffffffffffffffffffffff82169050919050565b6000819050919050565b60005b838110156125c55780820151818401526020810190506125aa565b838111156125d4576000848401525b50505050565b6125e3826126b2565b810181811067ffffffffffffffff8211171561260257612601612683565b5b80604052505050565b60006126168261259d565b91507fffffffffffffffffffffffffffffffffffffffffffffffffffffffffffffffff82141561264957612648612654565b5b600182019050919050565b7f4e487b7100000000000000000000000000000000000000000000000000000000600052601160045260246000fd5b7f4e487b7100000000000000000000000000000000000000000000000000000000600052604160045260246000fd5b6000601f19601f8301169050919050565b7f4f776e61626c653a206e6577206f776e657220697320746865207a65726f206160008201527f6464726573730000000000000000000000000000000000000000000000000000602082015250565b7f576974686472617748616e646c65723a20546f6b656e73206172726179206c6560008201527f6e67746820646f6573206e6f74206d6174636820616d6f756e7473206172726160208201527f79206c656e677468000000000000000000000000000000000000000000000000604082015250565b7f576974686472617748616e646c65723a20576974686472617720616d6f756e7460008201527f206d7573742062652067726561746572207468616e207a65726f000000000000602082015250565b7f4465706f73697448616e646c65723a204465706f73697420616d6f756e74206d60008201527f7573742062652067726561746572207468616e207a65726f0000000000000000602082015250565b7f416464726573733a20696e73756666696369656e742062616c616e636520666f60008201527f722063616c6c0000000000000000000000000000000000000000000000000000602082015250565b7f4465706f73697448616e646c65723a205468697320746f6b656e206973206e6f60008201527f742061626c6520746f2062652062726964676564000000000000000000000000602082015250565b7f576974686472617748616e646c65723a20576974686472617720616d6f756e7460008201527f206578636565647320757365722062616c616e63650000000000000000000000602082015250565b7f576974686472617748616e646c65723a205468697320746f6b656e206973206e60008201527f6f7420616363657074696e67207769746864726177616c730000000000000000602082015250565b7f4f776e61626c653a2063616c6c6572206973206e6f7420746865206f776e6572600082015250565b7f576974686472617748616e646c65723a20546f6b656e7320617265206c6f636b60008201527f6564206f6e20746865206f7468657220636861696e2063757272656e746c7900602082015250565b7f416464726573733a2063616c6c20746f206e6f6e2d636f6e7472616374000000600082015250565b7f5361666545524332303a204552433230206f7065726174696f6e20646964206e60008201527f6f74207375636365656400000000000000000000000000000000000000000000602082015250565b612a5a8161255f565b8114612a6557600080fd5b50565b612a7181612571565b8114612a7c57600080fd5b50565b612a888161259d565b8114612a9357600080fd5b5056fea2646970667358221220e6dfd53acf7b21dbf0c6c21c08e0ed62cb5da332fce8961e9eb7040f8826bd4164736f6c63430008040033",
  "linkReferences": {},
  "deployedLinkReferences": {}
}